{
  "contractName": "Transfers2",
  "abi": [
    {
      "constant": false,
      "inputs": [
        {
          "name": "_addr",
          "type": "address"
        }
      ],
      "name": "transfer",
      "outputs": [],
      "payable": true,
      "stateMutability": "payable",
      "type": "function"
    }
  ],
  "bytecode": "0x608060405234801561001057600080fd5b5060ed8061001f6000396000f300608060405260043610603f576000357c0100000000000000000000000000000000000000000000000000000000900463ffffffff1680631a695230146044575b600080fd5b6076600480360381019080803573ffffffffffffffffffffffffffffffffffffffff1690602001909291905050506078565b005b8073ffffffffffffffffffffffffffffffffffffffff166108fc349081150290604051600060405180830381858888f1935050505015801560bd573d6000803e3d6000fd5b50505600a165627a7a7230582074979b2d96a4737d25f5f347e34840f004e410683d512838593d6e2d07d72d9b0029",
  "source": "pragma solidity ^0.4.24;\n\ncontract Transfers2 {\n\tfunction transfer(address _addr) public payable {\n\t\t_addr.transfer(msg.value);\n\t}\n}",
  "sourcePath": "/Users/dustinbrickwood/go/src/github.com/ShyftNetwork/go-empyrean/shyft-config/shyft-cli/web3/transfer-through-master/contracts/Transfers2.sol",
  "compiler": {
    "name": "solc",
    "version": "0.4.24+commit.e67f0147.Emscripten.clang"
  },
  "schemaVersion": "2.0.1",
  "updatedAt": "2019-01-24T18:01:44.715Z"
}